:100000000C94100E0C942E0E0C942E0E0C942E0E9E
:100010000C942E0E0C942E0E0C942E0E0C942E0E70
:100020000C942E0E0C942E0E0C942E0E0C942E0E60
:100030000C942E0E0C942E0E0C942E0E0C942E0E50
:100040000C942E0E0C942E0E0C942E0E0C942E0E40
:100050000C942E0E0C942E0E0C942E0E0C942E0E30
:100060000C942E0E0C942E0E0C942E0E0C942E0E20
:100070000C942E0E0C942E0E0C942E0E0C942E0E10
:100080000C942E0E0C942E0E0C942E0E371352132D
:100090006D138813A313BE13D913F4130F142A146A
:1000A00042140000000000000000000000000000FA
:1000B0000000000000000000000000000000000040
:1000C0000000808080808080808080808080808030
:1000D00080808080808080000000000000000000A0
:1000E0000000000000000000000000000000000010
:1000F0000000000000000000000000000000000000
:1001000000000000000000000000000000000000EF
:10011000000000000000FF000000000000000000E0
:1001200000000000000000C070101F103020C00050
:1001300000000000000000000000000000000000BF
:1001400000000000000000000000000000000000AF
:10015000000000000000000000000000000000009F
:1001600000000000000000000000FF000000000090
:10017000000000000000000000008081434E28F8CD
:1001800044468380000000000000000000000000E2
:10019000000000000000000000000000000000005F
:1001A000000000000000000000000000000000004F
:1001B0000000000000000000000000000000FF0040
:1001C000000000000000000000000000000000002F
:1001D0000080601F10608000000000000000000030
:1001E000000000000000000000000000000000000F
:1001F00000000000000000000000000000000000FF
:1002000000000000000000000000000000000000EE
:100210000000FF00000000000000000000000000DF
:1002200000000006010000000000000106000000C0
:1002300000000000000000000000000000000000BE
:1002400000000000000000000000000000000000AE
:100250000000000000000000000000000202020296
:10026000020202020202030202020202020202026D
:10027000020202020202020202020202020202025E
:100280000202020000000000000000000000000068
:10029000000000000000000000000000000000005E
:1002A000000000000000000000000000000000004E
:1002B000000000000000000000008080808080803E
:1002C00080808080808080808080808080808000AE
:1002D000000000000000000000000000000000001E
:1002E000000000000000000000000000000000000E
:1002F00000000000000000000000000000000000FE
:100300000000000000000000000000000000FF00EE
:10031000000000000000000000000000000000C01D
:1003200070101F103020C00000000000000000000E
:1003300000000000000000000000000000000000BD
:1003400000000000000000000000000000000000AD
:10035000000000000000000000000000000000009D
:100360000000FF000000000000000000000000008E
:1003700000008081434E28F844468380000000003E
:10038000000000000000000000000000000000006D
:10039000000000000000000000000000000000005D
:1003A000000000000000000000000000000000004D
:1003B000000000000000FF0000000000000000003E
:1003C00000000000000000000080601F000000002E
:1003D000000000000000000000000000000000001D
:1003E000000000000000000000000000000000000D
:1003F00000000000000000000000000000000000FD
:1004000000000000000000000000FF0000000000ED
:1004100000000000000000000000000601000000D5
:1004200000000000000000000000000000000000CC
:1004300000000000000000000000000000000000BC
:1004400000000000000000000000000000000000AC
:100450000000000002020202020202020202030283
:10046000020202020202020202020202020202026C
:100470000202020202020202020202000000000066
:10048000000000000000000000000000000000006C
:10049000000000000000000000000000000000005C
:1004A000000000000000000000000000000000004C
:1004B000000080808080808080808080808080803C
:1004C00080808080808080000000000000000000AC
:1004D000000000000000000000000000000000001C
:1004E000000000000000000000000000000000000C
:1004F00000000000000000000000000000000000FC
:10050000000000000000FF000000000000000000EC
:1005100000000000000000C070101F103020C0005C
:1005200000000000000000000000000000000000CB
:1005300000000000000000000000000000000000BB
:1005400000000000000000000000000000000000AB
:1005500000000000000000000000FF00000000009C
:10056000000000000000000000008081434E28F8D9
:1005700044468380000000000000000000000000EE
:10058000000000000000000000000000000000006B
:10059000000000000000000000000000000000005B
:1005A0000000000000000000000000000000FF004C
:1005B000000000000000000000000000000000003B
:1005C0000000001F0000000000000000000000000C
:1005D000000000000000000000000000000000001B
:1005E000000000000000000000000000000000000B
:1005F00000000000000000000000000000000000FB
:100600000000FF00000000000000000000000000EB
:1006100000000000000000000000000000000000DA
:1006200000000000000000000000000000000000CA
:1006300000000000000000000000000000000000BA
:1006400000000000000000000000000002020202A2
:100650000202020202020302020202020202020279
:10066000020202020202020202020202020202026A
:100670000202020000000000000000000000000074
:10068000000000000000000000000000000000006A
:10069000000000000000000000000000000000005A
:1006A000000000000000000000008080808080804A
:1006B00080808080808080808080808080808000BA
:1006C000000000000000000000000000000000002A
:1006D000000000000000000000000000000000001A
:1006E000000000000000000000000000000000000A
:1006F0000000000000000000000000000000FF00FB
:10070000000000000000000000000000000000C029
:1007100070101F103020C00000000000000000001A
:1007200000000000000000000000000000000000C9
:1007300000000000000000000000000000000000B9
:1007400000000000000000000000000000000000A9
:100750000000FF000000000000000000000000009A
:1007600000008081434E28F80406030000000000CA
:100770000000000000000000000000000000000079
:100780000000000000000000000000000000000069
:100790000000000000000000000000000000000059
:1007A000000000000000FF0000000000000000004A
:1007B00000000000000000000000001F000000001A
:1007C0000000000000000000000000000000000029
:1007D0000000000000000000000000000000000019
:1007E0000000000000000000000000000000000009
:1007F00000000000000000000000FF0000000000FA
:1008000000000000000000000000000000000000E8
:1008100000000000000000000000000000000000D8
:1008200000000000000000000000000000000000C8
:1008300000000000000000000000000000000000B8
:10084000000000000202020202020202020203028F
:100850000202020202020202020202020202020278
:100860000202020202020202020202000000000072
:100870000000000000000000000000000000000078
:100880000000000000000000000000000000000068
:100890000000000000000000000000000000000058
:1008A0000000808080808080808080808080808048
:1008B00080808080808080000000000000000000B8
:1008C0000000000000000000000000000000000028
:1008D0000000000000000000000000000000000018
:1008E0000000000000000000000000000000000008
:1008F000000000000000FF000000000000000000F9
:1009000000000000000000C070101F103020C00068
:1009100000000000000000000000000000000000D7
:1009200000000000000000000000000000000000C7
:1009300000000000000000000000000000000000B7
:1009400000000000000000000000FF0000000000A8
:10095000000000000000000000000001030E08F885
:10096000040603000000000000000000000000007A
:100970000000000000000000000000000000000077
:100980000000000000000000000000000000000067
:100990000000000000000000000000000000FF0058
:1009A0000000000000000000000000000000000047
:1009B0000000001F00000000000000000000000018
:1009C0000000000000000000000000000000000027
:1009D0000000000000000000000000000000000017
:1009E0000000000000000000000000000000000007
:1009F0000000FF00000000000000000000000000F8
:100A000000000000000000000000000000000000E6
:100A100000000000000000000000000000000000D6
:100A200000000000000000000000000000000000C6
:100A300000000000000000000000000002020202AE
:100A40000202020202020302020202020202020285
:100A50000202020202020202020202020202020276
:100A60000202020000000000000000000000000080
:100A70000000000000000000000000000000000076
:100A80000000000000000000000000000000000066
:100A90000000000000000000000080808080808056
:100AA00080808080808080808080808080808000C6
:100AB0000000000000000000000000000000000036
:100AC0000000000000000000000000000000000026
:100AD0000000000000000000000000000000000016
:100AE0000000000000000000000000000000FF0007
:100AF000000000000000000000000000000000C036
:100B000070101F103020C000000000000000000026
:100B100000000000000000000000000000000000D5
:100B200000000000000000000000000000000000C5
:100B300000000000000000000000000000000000B5
:100B40000000FF00000000000000000000000000A6
:100B500000000001030E0808040603000000000066
:100B60000000000000000000000000000000000085
:100B70000000000000000000000000000000000075
:100B80000000000000000000000000000000000065
:100B9000000000000000FF00000000000000000056
:100BA0000000000000000000000000000000000045
:100BB0000000000000000000000000000000000035
:100BC0000000000000000000000000000000000025
:100BD0000000000000000000000000000000000015
:100BE00000000000000000000000FF000000000006
:100BF00000000000000000000000000000000000F5
:100C000000000000000000000000000000000000E4
:100C100000000000000000000000000000000000D4
:100C200000000000000000000000000000000000C4
:100C3000000000000202020202020202020203029B
:100C40000202020202020202020202020202020284
:100C5000020202020202020202020200000000007E
:100C60000000000000000000000000000000000084
:100C70000000000000000000000000000000000074
:100C80000000000000000000000000000000000064
:100C90000000808080808080808080808080808054
:100CA00080808080808080000000000000000000C4
:100CB0000000000000000000000000000000000034
:100CC0000000000000000000000000000000000024
:100CD0000000000000000000000000000000000014
:100CE000000000000000FF00000000000000000005
:100CF000000000000000000000000F0000000000E5
:100D000000000000000000000000000000000000E3
:100D100000000000000000000000000000000000D3
:100D200000000000000000000000000000000000C3
:100D300000000000000000000000FF0000000000B4
:100D400000000000000000000000000000000000A3
:100D50000000000000000000000000000000000093
:100D60000000000000000000000000000000000083
:100D70000000000000000000000000000000000073
:100D80000000000000000000000000000000FF0064
:100D90000000000000000000000000000000000053
:100DA0000000000000000000000000000000000043
:100DB0000000000000000000000000000000000033
:100DC0000000000000000000000000000000000023
:100DD0000000000000000000000000000000000013
:100DE0000000FF0000000000000000000000000004
:100DF00000000000000000000000000000000000F3
:100E000000000000000000000000000000000000E2
:100E100000000000000000000000000000000000D2
:100E200000000000000000000000000002020202BA
:100E30000202020202020302020202020202020291
:100E40000202020202020202020202020202020282
:100E5000020202000000000000000000000000008C
:100E60000000000000000000000000000000000082
:100E70000000000000000000000000000000000072
:100E80000000000000000000000080808080808062
:100E900080808080808080808080808080808000D2
:100EA0000000000000000000000000000000000042
:100EB0000000000000000000000000000000000032
:100EC0000000000000000000000000000000000022
:100ED0000000000000000000000000000000FF0013
:100EE0000000000000000000000000000000000002
:100EF00000000000000000000000000000000000F2
:100F000000000000000000000000000000000000E1
:100F100000000000000000000000000000000000D1
:100F200000000000000000000000000000000000C1
:100F30000000FF00000000000000000000000000B2
:100F400000000000000000000000000000000000A1
:100F50000000000000000000000000000000000091
:100F60000000000000000000000000000000000081
:100F70000000000000000000000000000000000071
:100F8000000000000000FF00000000000000000062
:100F90000000000000000000000000000000000051
:100FA0000000000000000000000000000000000041
:100FB0000000000000000000000000000000000031
:100FC0000000000000000000000000000000000021
:100FD00000000000000000000000FF000000000012
:100FE0000000000000000000000000000000000001
:100FF00000000000000000000000000000000000F1
:1010000000000000000000000000000000000000E0
:1010100000000000000000000000000000000000D0
:1010200000000000020202020202020202020302A7
:101030000202020202020202020202020202020290
:10104000020202020202020202020200000000008A
:101050000000000000000000000000000000000090
:101060000000000000000000000000000000000080
:101070000000000000000000000000000000000070
:1010800000008000000000000000000000000000E0
:101090000000000000000000000000000000000050
:1010A0000000000000000000000000000000000040
:1010B0000000000000000000000000000000000030
:1010C0000000000000000000000000000000000020
:1010D000000000000000FF00000000000000000011
:1010E0000000000000000000000000000000000000
:1010F00000000000000000000000000000000000F0
:1011000000000000000000000000000000000000DF
:1011100000000000000000000000000000000000CF
:1011200000000000000000000000FF0000000000C0
:1011300000000000000000000000000000000000AF
:10114000000000000000000000000000000000009F
:10115000000000000000000000000000000000008F
:10116000000000000000000000000000000000007F
:101170000000000000000000000000000000FF0070
:10118000000000000000000000000000000000005F
:10119000000000000000000000000000000000004F
:1011A000000000000000000000000000000000003F
:1011B000000000000000000000000000000000002F
:1011C000000000000000000000000000000000001F
:1011D0000000FF0000000000000000000000000010
:1011E00000000000000000000000000000000000FF
:1011F00000000000000000000000000000000000EF
:1012000000000000000000000000000000000000DE
:1012100000000000000000000000000002020202C6
:10122000020202020202030202020202020202029D
:10123000020202020202020202020202020202028E
:101240000202020000000000000000000000000098
:10125000000000000000000000000000000000008E
:10126000000000000000000000000000000000007E
:10127000000000000000000000000000000000006E
:10128000000000000000000000000000000000005E
:10129000000000000000000000000000000000004E
:1012A000000000000000000000000000000000003E
:1012B000000000000000000000000000000000002E
:1012C000000000000000000000000000000000001E
:1012D000000000000000000000000000000000000E
:1012E00000000000000000000000000000000000FE
:1012F00000000000000000000000000000000000EE
:1013000000000000000000000000000000000000DD
:1013100000000000000000000000000000000000CD
:1013200000000000000000000000000000000000BD
:1013300000000000000000000000000000000000AD
:10134000000000000000000000000000000000009D
:10135000000000000000000000000000000000008D
:10136000000000000000000000000000000000007D
:10137000000000000000000000000000000000006D
:10138000000000000000000000000000000000005D
:10139000000000000000000000000000000000004D
:1013A000000000000000000000000000000000003D
:1013B000000000000000000000000000000000002D
:1013C000000000000000000000000000000000001D
:1013D000000000000000000000000000000000000D
:1013E00000000000000000000000000000000000FD
:1013F00000000000000000000000000000000000ED
:1014000000000000000000000000000000000000DC
:1014100000000000020202020202020202020202B4
:10142000020202020202020202020202020202029C
:101430000202020202020202020202000000000096
:10144000000000000000000000000000000000009C
:10145000000000000000000000000000000000008C
:10146000000000000000000000000000000000007C
:10147000000000000000000000000000000000006C
:10148000000000000000000000000000000000005C
:10149000000000000000000000000000000000004C
:1014A000000000000000000000000000000000003C
:1014B000000000000000000000000000000000002C
:1014C000000000000000000000000000000000001C
:1014D000000000000000000000000000000000000C
:1014E00000000000000000000000000000000000FC
:1014F000000000000000000000000000000000F8F4
:10150000F8000000F8F80000000080F070E08000B3
:1015100000000000C0C0800000E0E000C0C06060CB
:101520006060606060600000E0E0C080000000007B
:1015300000E0E0C0000000000000F8F8E0800000DB
:101540000008F8F0E0800000FFFF0000000000004D
:10155000000000FFFF060606FFFF0000E0FC1F1B67
:10156000181B1F7CF0800000FFFF1FFCE0FFFF0046
:10157000FFFF00000000607030F0E000FFFF01039B
:101580000F1C38381F0707FFF8000000F0FF3F303E
:1015900031373E78E0800FFFF31F7CE0FFFF000053
:1015A0000000000000000001010000000101000136
:1015B0000100000000000000030300040703000016
:1015C0000F0F07000F0F0C0C0C0C0C0C0C0F0F0066
:1015D0000F0F000000000000000000003F3F00016E
:1015E00001000000000000000107060F0F000003CB
:1015F0001F1F0000000000000000000000000000AD
:1016000000000000000000000000000000000000DA
:1016100000000000000000000000000000000000CA
:1016200000000000000000000000000000000000BA
:1016300000000000000000000000000000000000AA
:10164000000000000000000000000000000000009A
:1016500000000000000080C0E0F07070E0E040009A
:10166000000000000000000000E0F0F0E0C080009A
:1016700000000000000000000000000000000080EA
:10168000C080000000E0F0F07070707070707070DA
:10169000200000000000000000000000000000002A
:1016A000000000000000000000FEFFFFC3808080FB
:1016B00080D8FCFC7C3CFCFCF80000C0F7FFD78124
:1016C000838FFEFCF000000000FEFFFE7CF8E0C00F
:1016D000C0F0FFFFFFFFFE00000003177FFCF8B81B
:1016E0003838383838383810000000000000000062
:1016F00000000000000000000000000000000101E8
:10170000010303030301010000000F1F0F001E3F30
:101710001F0103030303037BFFFBC000007BFF7B70
:101720000000000101030301031FFFFCE0000000B3
:10173000003F7F7F707078383838383C18000000E0
:101740000000000000000000000000000000000099
:101750000000C0E0F070783C3C787070E0E0C08041
:1017600000E0F0E0000080E0F060000000F1F8F838
:1017700078383C1C080000E0F0F8181C0E0E0F0F23
:101780001D1C3CF8F0E000000000F8FCF800000030
:101790000000000000000000000000000000000049
:1017A000000000000000FFFFFF808080800080803C
:1017B000C0FF7F3F00010F7FFFF0FFFF3F000000F1
:1017C00000FDFFFF87878787020000FFFFFF787813
:1017D0007878FCFCDCCE8E0F070300000000FFFFD2
:1017E000FF000000000000000000000000000000FA
:1017F00000000000000000000000000103030303DC
:1018000003010303010000000000000000010100CB
:101810000000000000010303030303030100001F95
:101820003F1F0000000000000103070F1F0E000013
:10183000000019391900000000000000000000003D
:101840000000000000000000000000000000000098
:101850000000000000000000000000000000000088
:1018600000000000000000000000000080808000F8
:101870000000000000000000000000000000000068
:101880000000000000000000000000000000000058
:101890000000000000000000000000000000000048
:1018A000000000000000000000000000000000E058
:1018B000F0F070383838F8F0E00000C0FCFE7F0728
:1018C0000303FFFFFE00000080C0C0C0C0E0E07066
:1018D0007830000000000080C0E0E0E04000000040
:1018E0000000000000000000000000F0F8FC1E0FE7
:1018F00007020000000000F0F8FE0F06070F1EFCB4
:10190000F8F00007FFFFF830F8FEDF0F0300001FBC
:10191000FFFFF010383CFFF7C300003FFFFFE1E19D
:10192000717170381000000080E8FE6F0701000838
:101930001C1C1C1C1C1CFCFCFC3C1C1C1C08003F34
:101940007F7F707070707038381000070F0F1C1C8C
:101950001C1C0C1F0F0700001F3F1F0000030F1F60
:101960000E0000003F7F3F000000031F3F1E0000ED
:10197000071F3F787078381C1C1C08000F1F3F7031
:10198000707070783C1C1E0C0000FFFFFF00000010
:101990000000000000000000000000000000000047
:1019A0000000000000000000000000000000000037
:1019B0000000000000000000000000000000000027
:1019C0000000000000000000000000000000000017
:1019D0000000000000000000000000000000070FF1
:1019E00007000000000000000000000000000000F0
:1019F00000000000000000000000000000000000E7
:101A000000000000000000000000000000000000D6
:101A100000000000000000000000000000000000C6
:101A200000000000000000000000000000000000B6
:101A300000000000000000000000000000000000A6
:101A4000002F00000007000700147F147F14242AD1
:101A50007F2A1232340816263649552250000503D3
:101A60000000001C2241000041221C0014083E0816
:101A70001408083E08080000503000101010101024
:101A8000006060000020100804023E5149453E00FD
:101A9000427F400042615149462141454B31181473
:101AA000127F1027454545393C4A494930017109A3
:101AB00005033649494936064949291E003636008C
:101AC00000005636000008142241001414141414A7
:101AD00000412214080201510906324959513E7E43
:101AE0001111117E7F494949363E414141227F41D2
:101AF00041221C7F494949417F090909013E414969
:101B0000497A7F0808087F00417F41002040413F1B
:101B1000017F081422417F404040407F020C027F39
:101B20007F0408107F3E4141413E7F090909063E7E
:101B30004151215E7F091929464649494931010130
:101B40007F01013F4040403F1F2040201F3F403861
:101B5000403F631408146307087008076151494542
:101B600043007F414100552A552A550041417F00DD
:101B700004020102044040404040000102040020F1
:101B8000545454787F4844443838444444203844BA
:101B900044487F3854545418087E0901020C5252AC
:101BA000523E7F0804047800447D40002040443DBC
:101BB000007F1028440000417F40007C0418047816
:101BC0007C0804047838444444387C14141408080D
:101BD0001414187C7C080404084854545420043F0E
:101BE0004440203C4040207C1C2040201C3C403095
:101BF000403C44281028440C5050503C4464544C01
:101C000044007F3E1C08081C3E7F00087C7E7C0848
:101C1000103E7E3E103E3E3E3E3E007F3E1C080093
:101C200011241FBECFEFD0E4DEBFCDBF13E0A0E094
:101C3000B1E0E8E4F1E300E00BBF02C007900D92D1
:101C4000A430B107D9F723E0A4E0B3E001C01D92AE
:101C5000A731B207E1F722D30C94A2180C9400002C
:101C60000F931F93CF93DF93FC01A385B4855E91FF
:101C700081E090E09C01038002C0220F331F0A9490
:101C8000E2F7252B2C93A185B2855E919C01028001
:101C900002C0220F331F0A94E2F7252B2C93A58153
:101CA000B6812C91008002C0880F991F0A94E2F738
:101CB000809582238C933281A185B285413059F47D
:101CC0002C9181E090E002C0880F991F3A95E2F7CD
:101CD000822B8C938CC02C9181E090E002C0880F05
:101CE000991F3A95E2F7809582238C9380C02381D7
:101CF000C385D485AB01082E02C0559547950A943B
:101D0000E2F740FF0BC048818D0102C0000F111F98
:101D10002A95E2F79801242B28830BC03881AD0166
:101D200002C0440F551F2A95E2F7242F2095232344
:101D30002883C585D68548819D01048002C0220F75
:101D4000331F0A94E2F7242B2883C585D685388172
:101D5000AD01048002C0440F551F0A94E2F7242FFE
:101D6000209523232883019710F6A581B6814C91F5
:101D700081E090E09C01008002C0220F331F0A9492
:101D8000E2F7242B2C93A385B4853E91AC0103800C
:101D900002C0440F551F0A94E2F7242F20952323F5
:101DA0002C93A185B2853E91AC01028002C0440F04
:101DB000551F0A94E2F7242F209523232C93A38503
:101DC000B4854C919C01038002C0220F331F0A94FA
:101DD000E2F7242B2C93A185B2852C91028002C0BE
:101DE000880F991F0A94E2F7822B8C9306C087E034
:101DF00090E070E0A1E0B0E07ACFDF91CF911F9149
:101E00000F9108950F931F93CF93DF93EC01AB01D4
:101E10008B0116950795169507959801A7E8B1E6E9
:101E200089D596958795969587959695879564E536
:101E3000689F9001699F300D1124421B530B642F42
:101E4000606840E0CE010CDF9801A7E8B1E672D5EA
:101E5000969587959695879596958795682F606452
:101E600040E0CE01FDDEDF91CF911F910F910895EB
:101E70000F931F93CF93DF938C01FC01108A178679
:101E800060E070E0BFDFC8EFD1E041E060E0C80192
:101E9000E7DE2197D1F7DF91CF911F910F91089540
:101EA0006F927F928F92AF92BF92CF92EF92FF92FA
:101EB0000F93CF93DF93CDB7DEB73C01DC011696CD
:101EC0007C936E9315974C9318963C932E9317978B
:101ED00011960C9311971A96FC92EE9219971296FE
:101EE000CC9212971C96BC92AE921B9713968C9232
:101EF00013978E859F851E969C938E931D97888938
:101F000014968C931497F901608181E090E0AC0104
:101F100002C0440F551F0A95E2F7462B40831796DF
:101F2000ED91FC91189742919C0111960C9011979C
:101F300002C0220F331F0A94E2F7242B2083159648
:101F4000ED91FC91169742919C010C9002C0220FDA
:101F5000331F0A94E2F7242B20831996ED91FC910C
:101F60001A9742919C0112960C90129702C0220F70
:101F7000331F0A94E2F7242B20831B96ED91FC91EA
:101F80001C9742919C0113960C90139702C0220F4C
:101F9000331F0A94E2F7242B20831D96ED91FC91C8
:101FA0001E9742919C0114960C9002C0220F331F81
:101FB0000A94E2F7242B2083A5EABEE01197F1F7FB
:101FC00000C00000D3011796ED91FC911897308165
:101FD000AC0111960C90119702C0440F551F0A9442
:101FE000E2F7242F209523232083EFE7FEE33197A8
:101FF000F1F700C000001796ED91FC911897408111
:102000009C0111960C90119702C0220F331F0A9465
:10201000E2F7242B20831596ED91FC9116972081F1
:102020000C9002C0880F991F0A94E2F780958223D2
:10203000808340E061E2C30113DE40E068ECC3014D
:102040000FDE40E066E0C3010BDE40E063E1C30168
:1020500007DE40E060E2C30103DE40E06CE0C30164
:10206000FFDDC30105DF40E061E2C301F9DD40E0CF
:1020700060ECC301F5DD40E060E2C301F1DDDF911A
:10208000CF910F91FF90EF90CF90BF90AF908F9036
:102090007F906F900895FF920F931F93CF93DF93DC
:1020A000FC016A3069F4878590899C012C5A3F4F66
:1020B00064E570E023D4281B390B308B27872AC0B6
:1020C000C62F8C01678570899DDE6C2F70E0605291
:1020D0007109EB01CC0FDD1FCC0FDD1FC60FD71F21
:1020E000C65CD54E0F2EF5E0FF2EF02DFE0164915B
:1020F000660F41E0C801B4DDFA942196F110F6CFE5
:1021000041E060E0C801ACDDF80187859089069662
:10211000908B8787DF91CF911F910F91FF9008954A
:102120000F931F93CF93DF93EB016881662339F000
:102130008C012196C801AFDF69916111FBCFDF915E
:10214000CF911F910F910895CF93DF93CDB7DEB755
:10215000DA950FB6F894DEBF0FBECDBF9E01275FA4
:102160003E4FC95FDE4F48815981C750D1406FEF64
:1021700070E0CE01019689D4BE016F5F7F4FCB5FC7
:10218000DE4F88819981C550D140CADFD3950FB603
:10219000F894DEBF0FBECDBFDF91CF9108951F939E
:1021A000CF93DF93EC01162F6F8578892BDE41E00A
:1021B000612FCE0155DD8F8598890196988B8F8789
:1021C000DF91CF911F910895EF92FF920F931F938C
:1021D000CF93DF938C01FC01108A17867B01F8E016
:1021E000EF1AFEEFFF0AEB01FE016491C801D7DF91
:1021F0002196CE15DF05C1F7DF91CF911F910F9189
:10220000FF90EF900895181619066CF440E050E026
:1022100027E033E0000021503109E1F74F5F5F4FC5
:1022200084179507A9F708955E9888B95F9A00000A
:102230005F9882E090E0E7CF089581E0F5CF0895C0
:1022400084E690E0E0DF88E3EFDF86E0EDDF8FE01B
:10225000EBDF81E0E9DF8AE090E0D5CF0895ECE79D
:10226000F0E0808180648083EAE7F0E08081876825
:1022700080830895ECE7F0E09081987F8770892B48
:102280008083EAE7F0E0808180648083808186FD3E
:10229000FDCF80917800909179000895CF93DF93DE
:1022A000CDB7DEB7CA54D1090FB6F894DEBF0FBE62
:1022B000CDBF8FEF87B918B88AB91BB811B882B9EA
:1022C00087E08F931F9285E28F930F2EF5E08F2E7C
:1022D000F02D0F2EF5E2AF2EB12CF02D0F2EF3E0E6
:1022E000CF2EF02D0F2EF5E2EF2EF12CF02D02E087
:1022F00025E230E041E065E270E086E093E0D0DD89
:102300009FDFADDF62E574E186E093E05DDF2FEBF8
:1023100037E289E0215030408040E1F700C0000002
:1023200086E093E0A5DD0F900F900F90FE013196AF
:10233000FDAFECAFFCAD2496FFAF24972DAD2596F5
:102340002FAF25972E013EE0430E511C0F2EF6E0D5
:102350008F2EF3E09F2EF02D0F2EF4E0EF2EF1E004
:10236000FF2EF02DA82C2696FFAF269727962FAF8D
:10237000279728964FAE289729965FAE2997B92CB4
:1023800043D369EA73E0BAD2EDE06E9FC001112435
:102390009C01285D3E4F21963FAF2EAF2197B9019A
:1023A00024968FAD249725969FAD259744D3ECAD09
:1023B000FDAD01900020E9F73197CF012CAD3DAD87
:1023C000821B930B80930503882371F0FE013E96D8
:1023D0002FEF280F30E02F5F3F4F2E0F3F1F4FE5AD
:1023E0004193E217F307E1F7F201E80FF11D1082C4
:1023F0001EAE10E00F2EF8E1CF2ED12CF02D0F2EB7
:10240000F4EB6F2E712CF02D0F2EF8E62F2E3324C7
:102410003394F02DF401D08AC7861F921F922FEEBD
:1024200032E03F932F939F928F928EDEF401708A59
:1024300067861F921F925F924F929F928F9284DEC7
:10244000F401308A2786E12FF0E0E25FFE4F8081C1
:10245000F70182831F921F92FF92EF929F928F92B9
:1024600073DE8FE493EC0197F1F700C0000024EADB
:1024700031E0F401308B27871F921F9287EF92E0A3
:102480009F938F939F928F925FDE809104034AE027
:10249000BE01655E7F4F90E0D5D2BC018A2D9B2D99
:1024A0003FDE8AED91E0F401908B87871F921F92A7
:1024B0008FEF92E09F938F939F928F9245DE80E003
:1024C00090E0D8D54AE0BE01655E7F4F90E0BAD279
:1024D000BC018A2D9B2D24DE80E0CCDE9250EFE4FF
:1024E000F3EC3197F1F700C000000FB6F894DEBFAF
:1024F0000FBECDBF853833E0930760F080E0BADED1
:10250000925085389340D0F71F5F1A3109F082CF7F
:1025100010E080CF8436910540F480E0ABDE92502D
:1025200084369105D0F3115075CF81E0A3DE92502F
:1025300023969FAF8EAF23978FE493EC0197F1F72B
:1025400000C000002396EEADFFAD2397E53823E0F1
:10255000F20708F45FCF2B96FFAEEEAE2B97FB2C65
:10256000B12E8F0181E086DE1250053833E013076B
:10257000C8F71B2DBF2C2B96EEACFFAC2B9740E081
:1025800000E0ECADFDAD01900020E9F731978CAD96
:102590009DADE81BF90B802F90E08E179F0708F088
:1025A00058C0E1E0F0E0EC0FFD1FE80FF91F2081BB
:1025B000F701328123134BC0F201E80FF91F20838A
:1025C0008FE493EC0197F1F700C0000028966FADFF
:1025D000289729967FAD299726968FAD269727961F
:1025E0009FAD27971FD2892B89F562E478E1C4015A
:1025F000EBDDEFE4F3EC3197F1F700C00000109150
:1026000004031F5F1093040380E090E033D581172B
:1026100088F4612F80E090E035D512DE80E004DEA2
:10262000FFE72AE136E0F15020403040E1F700C0FA
:10263000000003DE8FE39EE7E5E081509040E0403C
:10264000E1F700C00000C40113DC9ACE41E00F5F47
:1026500098CF4111DFCEFEAD8F2F90E0FC01319776
:10266000EB30F10508F046C1EA5BFF4F5AC16AE55D
:1026700072E18A2D9B2DA8DD2FEB34ED81E02150F6
:1026800030408040E1F700C000009FEBE5E4F4E05B
:102690009150E040F040E1F700C000008A2D9B2DF2
:1026A000E7DB28C162E670E18A2D9B2D8DDD2FEBE3
:1026B00034ED81E0215030408040E1F700C000005F
:1026C0009FEBE5E4F4E09150E040F040E1F700C01A
:1026D00000008A2D9B2DCCDB0DC16AE67EE08A2DA1
:1026E0009B2D72DD2FEB34ED81E021503040804096
:1026F000E1F700C000009FEBE5E4F4E09150E0401A
:10270000F040E1F700C000008A2D9B2DB1DBF2C044
:1027100062E77CE08A2D9B2D57DD2FEB34ED81E0C5
:10272000215030408040E1F700C000009FEBE5E41D
:10273000F4E09150E040F040E1F700C000008A2D45
:102740009B2D96DBD7C06AE77AE08A2D9B2D3CDD76
:102750002FEB34ED81E0215030408040E1F700C0A4
:1027600000009FEBE5E4F4E09150E040F040E1F739
:1027700000C000008A2D9B2D7BDBBCC062E878E0A6
:102780008A2D9B2D21DD2FEB34ED81E0215030404F
:102790008040E1F700C000009FEBE5E4F4E09150D9
:1027A000E040F040E1F700C000008A2D9B2D60DB87
:1027B000A1C06AE876E08A2D9B2D06DD2FEB34ED73
:1027C00081E0215030408040E1F700C000009FEBE5
:1027D000E5E4F4E09150E040F040E1F700C0000093
:1027E0008A2D9B2D45DB86C062E974E08A2D9B2DE6
:1027F000EBDC2FEB34ED81E0215030408040E1F7FD
:1028000000C000009FEBE5E4F4E09150E040F040B0
:10281000E1F700C000008A2D9B2D2ADB6BC06AE91E
:1028200072E08A2D9B2DD0DC2FEB34ED81E021501E
:1028300030408040E1F700C000009FEBE5E4F4E0A9
:102840009150E040F040E1F700C000008A2D9B2D40
:102850000FDB50C062EA70E0C401B6DC2FEB34ED50
:1028600081E0215030408040E1F700C000009FEB44
:10287000E5E4F4E09150E040F040E1F700C00000F2
:10288000C401F6DA88E691E0F401908B87871F9205
:102890001F922196FFAD2197FF932FAD2F939F920B
:1028A0008F9252DC3FE78AE196E0315080409040C1
:1028B000E1F700C000006AE476E1C40185DCEFEBDB
:1028C000F4ED21E0E150F0402040E1F700C00000CD
:1028D0003FEB85E494E0315080409040E1F700C048
:1028E0000000C401C5DA0F900F900F900F900F9069
:1028F0000F9046CDEEADEF5FEEAF8CCD97FB072E80
:1029000016F4009406D077FD08D023D007FC05D03C
:102910003EF4909581959F4F0895709561957F4FF6
:102920000895EE0FFF1F0024001C0BBE0790F691C8
:10293000E02D0994A29FB001B39FC001A39F700D29
:10294000811D1124911DB29F700D811D1124911DB7
:102950000895AA1BBB1B51E107C0AA1FBB1FA617E6
:10296000B70710F0A61BB70B881F991F5A95A9F738
:1029700080959095BC01CD0108958F929F92AF9262
:10298000BF92CF92DF92EF92FF92CF93DF93EC0151
:10299000688179818A819B81611571058105910525
:1029A00021F464E279ED8BE597E02DE133EF41E02E
:1029B00050E07AD349015A019B01AC01A7EAB1E486
:1029C0008FD36B017C01ACEEB4EFA501940194D3DD
:1029D000DC01CB018C0D9D1DAE1DBF1DB7FF03C0DB
:1029E0000197A109B04888839983AA83BB839F7705
:1029F000DF91CF91FF90EF90DF90CF90BF90AF909D
:102A00009F908F900895B9CF80E091E0B6CFA0E07D
:102A1000B0E08093000190930101A0930201B09374
:102A200003010895FB01DC018D91019080190110D3
:102A3000D9F3990B0895FB01DC0101900D92002060
:102A4000E1F70895BB274A3031F4992322F4BDE21F
:102A5000909581959F4F01C0BB27FB015527AA2761
:102A6000880F991FAA1FA41710F0A41B839550511B
:102A7000B9F7A05DAA3308F0A95DA193009779F793
:102A8000B111B1931192CB014BC20F931F93CF930E
:102A9000DF93CDB7DEB72E970FB6F894DEBF0FBE2B
:102AA000CDBF8C01FA0186E08C831A83098377FFFE
:102AB00002C060E070E8CB0101979E838D83A9017D
:102AC000BF01CE01019619D04D815E8157FD0AC02C
:102AD0002F813885421753070CF49A01F801E20F51
:102AE000F31F10822E960FB6F894DEBF0FBECDBF37
:102AF000DF91CF911F910F9108952F923F924F92A6
:102B00005F926F927F928F929F92AF92BF92CF927D
:102B1000DF92EF92FF920F931F93CF93DF93CDB786
:102B2000DEB72B970FB6F894DEBF0FBECDBF6C019A
:102B30007B018A01FC0117821682838181FFBFC15C
:102B4000CE0101963C01F6019381F70193FD859139
:102B500093FF81917F01882309F4ADC1853239F457
:102B600093FD859193FF81917F01853221F4B60118
:102B700090E0E6D1E8CF912C212C312CFFE1F31528
:102B8000D8F08B3279F038F4803279F08332A1F4C6
:102B9000232D20611DC08D3261F0803369F4232D17
:102BA000216016C0832D8260382EE32DE4603E2E16
:102BB0002AC0F32DF8601DC037FC2DC020ED280F72
:102BC0002A3040F08E32B9F436FC75C1232D2064D2
:102BD000322E19C036FE06C08AE0989E200D1124C0
:102BE000922E11C0EAE02E9E200D1124222EF32DEC
:102BF000F0623F2E08C08C3621F4832D8068382E79
:102C000002C0883641F4F70193FD859193FF8191CD
:102C10007F018111B3CF982F9F7D9554933028F475
:102C20000C5F1F4F9FE399830DC0833631F08337CC
:102C300071F0833509F055C020C0F8018081898387
:102C40000E5F1F4F88248394912C530112C02801DA
:102C5000F2E04F0E511CF801A080B18036FE03C097
:102C6000692D70E002C06FEF7FEFC5014ED14C01BE
:102C70008201F32DFF773F2E15C0280122E0420E7E
:102C8000511CF801A080B18036FE03C0692D70E0B0
:102C900002C06FEF7FEFC5012DD14C01F32DF0681D
:102CA0003F2E820133FC19C0822D90E088169906D0
:102CB000A0F4B60180E290E043D12A94F5CFF5016B
:102CC00037FC859137FE81915F01B60190E038D1E4
:102CD00021102A9421E0821A91088114910479F735
:102CE000E1C0843611F0893639F5F80137FE07C0A6
:102CF00060817181828193810C5F1F4F08C0608168
:102D00007181072E000C880B990B0E5F1F4FF32D5E
:102D1000FF763F2E97FF09C090958095709561953D
:102D20007F4F8F4F9F4FF0683F2E2AE030E0A30186
:102D300043D1882E861844C0853731F4232D2F7E49
:102D4000B22E2AE030E025C0932D997FB92E8F3620
:102D5000C1F018F4883579F0AEC0803719F08837A3
:102D600021F0A9C0E92FE061BE2EB4FE0DC0FB2DFD
:102D7000F460BF2E09C034FE0AC0292F2660B22E8F
:102D800006C028E030E005C020E130E002C020E1CC
:102D900032E0F801B7FE07C06081718182819381C2
:102DA0000C5F1F4F06C06081718180E090E00E5F74
:102DB0001F4FA30101D1882E8618FB2DFF773F2ED0
:102DC00036FE0DC0232D2E7FA22E891458F434FE1A
:102DD0000BC032FC09C0832D8E7EA82E05C0B82CF6
:102DE000A32C03C0B82C01C0B92CA4FE0FC0FE0157
:102DF000E80DF11D8081803321F49A2D997EA92E52
:102E000009C0A2FE06C0B394B39404C08A2D86788C
:102E100009F0B394A3FC10C0A0FE06C0B21480F465
:102E2000280C922C9B180DC0B21458F4B60180E205
:102E300090E086D0B394F8CFB21418F42B1802C0E7
:102E4000982C212CA4FE0FC0B60180E390E078D02E
:102E5000A2FE16C0A1FC03C088E790E002C088E58E
:102E600090E0B6010CC08A2D867851F0A1FE02C018
:102E70008BE201C080E2A7FC8DE2B60190E060D059
:102E8000891430F4B60180E390E05AD09A94F8CFD8
:102E90008A94F301E80DF11D8081B60190E050D0D5
:102EA0008110F6CF222009F44ECEB60180E290E0E8
:102EB00047D02A94F7CFF6018681978102C08FEF21
:102EC0009FEF2B960FB6F894DEBF0FBECDBFDF91FC
:102ED000CF911F910F91FF90EF90DF90CF90BF9017
:102EE000AF909F908F907F906F905F904F903F90AA
:102EF0002F900895FC010590615070400110D8F7A3
:102F0000809590958E0F9F1F0895FC016150704031
:102F100001900110D8F7809590958E0F9F1F08950E
:102F2000DC01FC01672F71917723E1F7329704C030
:102F30007C916D9370836291AE17BF07C8F30895BB
:102F40000F931F93CF93DF93FB01238121FD03C0D8
:102F50008FEF9FEF2CC022FF16C04681578124813E
:102F600035814217530744F4A081B1819D012F5F41
:102F70003F4F318320838C93268137812F5F3F4FD2
:102F80003783268314C08B01EC01FB010084F1859B
:102F9000E02D0995892BE1F6D80116968D919C912B
:102FA0001797019617969C938E931697CE01DF91F3
:102FB000CF911F910F910895FA01AA27283051F15E
:102FC000203181F1E8946F936E7F6E5F7F4F8F4F5A
:102FD0009F4FAF4FB1E03ED0B4E03CD0670F781FB9
:102FE000891F9A1FA11D680F791F8A1F911DA11D9E
:102FF0006A0F711D811D911DA11D20D009F46894D7
:103000003F912AE0269F11243019305D3193DEF67E
:10301000CF010895462F4770405D4193B3E00FD034
:10302000C9F7F6CF462F4F70405D4A3318F0495D1F
:1030300031FD4052419302D0A9F7EACFB4E0A69502
:103040009795879577956795BA95C9F70097610524
:10305000710508959B01AC010A2E0694579547957A
:1030600037952795BA95C9F7620F731F841F951F6F
:10307000A01D0895F999FECF92BD81BDF89A9927B8
:1030800080B50895262FF999FECF92BD81BDF89A9B
:10309000019700B4021639F01FBA20BD0FB6F8949C
:1030A000FA9AF99A0FBE0895052E97FB16F400942C
:1030B0000FD057FD05D024D007FC02D046F408C03D
:1030C00050954095309521953F4F4F4F5F4F089554
:1030D00090958095709561957F4F8F4F9F4F089584
:1030E00029DCA59F900DB49F900DA49F800D911D8C
:1030F00011240895B7FFF4CFF3DF821B930B0895DB
:10310000A1E21A2EAA1BBB1BFD010DC0AA1FBB1FEB
:10311000EE1FFF1FA217B307E407F50720F0A21B5D
:10312000B30BE40BF50B661F771F881F991F1A94CA
:1031300069F760957095809590959B01AC01BD01F4
:08314000CF010895F894FFCFC0
:10314800010000003C2020203E0000000000414219
:10315800434445464748494A4B4C4D4E4F505152BF
:10316800535455565758595A4D454D45530000002C
:1031780000000000004F574C000000000000000055
:10318800000055435200000000000000000000410C
:103198005252414E47454D454E5400004D415354FF
:1031A80049434154450000000053554D4D455200D8
:1031B8000000000000004C4F534552000000000082
:1031C800000000434F4D5055544552000000000088
:1031D800425245455A45000000000000004252494D
:1031E800434B000000000000000043414C4D00002C
:1031F8000000000000000043414E414C0000000068
:1032080000000000574F4C4600000000000000007E
:1032180000434153540000000000000000004348F0
:103228004F53450000000000000000434C41575335
:10323800000000000000000048554E44524544007C
:1032480000000000004D4F4F4E000000000000003D
:10325800000043415354524F000000000000004357
:103268004F4F4B494553000000000000435553544D
:103278004F4D5300000000000044414D41474500B8
:1032880000000000000044414E4E590000000000BC
:10329800000000444545504C590000000000000063
:1032A80044455054480000000000000000444953C1
:1032B80043555353494F4E000000444F4C4C0000B7
:1032C8000000000000000047414D4552000000008A
:1032D800000000004D494E4543524146540000004D
:1032E8000050574D000000000000000000004D4154
:1032F8004348494E4500000000000048554E4452DE
:1033080045440000000000004452454144000000CC
:1033180000000000004A555354494E0000000000C8
:10332800000053554E4452455353000000000048D6
:10333800414E474D414E0053636F72653A20004835
:04334800533A2000D4
:00000001FF
